{
    "contractName": "Greeter",
    "abi": [
        {
            "inputs": [
                {
                    "internalType": "string",
                    "name": "_greeting",
                    "type": "string"
                }
            ],
            "stateMutability": "nonpayable",
            "type": "constructor"
        },
        {
            "inputs": [
                {
                    "internalType": "uint256",
                    "name": "_a",
                    "type": "uint256"
                },
                {
                    "internalType": "uint256",
                    "name": "_b",
                    "type": "uint256"
                }
            ],
            "name": "calculate",
            "outputs": [
                {
                    "internalType": "uint256",
                    "name": "",
                    "type": "uint256"
                }
            ],
            "stateMutability": "pure",
            "type": "function"
        },
        {
            "inputs": [],
            "name": "greet",
            "outputs": [
                {
                    "internalType": "string",
                    "name": "",
                    "type": "string"
                }
            ],
            "stateMutability": "view",
            "type": "function"
        },
        {
            "inputs": [
                {
                    "internalType": "string",
                    "name": "_greeting",
                    "type": "string"
                }
            ],
            "name": "setGreeting",
            "outputs": [],
            "stateMutability": "nonpayable",
            "type": "function"
        }
    ],
    "bytecode": "608060405234801561001057600080fd5b506040516105cf3803806105cf83398101604081905261002f916100f8565b8051610042906000906020840190610049565b5050610201565b828054610055906101c7565b90600052602060002090601f01602090048101928261007757600085556100bd565b82601f1061009057805160ff19168380011785556100bd565b828001600101855582156100bd579182015b828111156100bd5782518255916020019190600101906100a2565b506100c99291506100cd565b5090565b5b808211156100c957600081556001016100ce565b634e487b7160e01b600052604160045260246000fd5b6000602080838503121561010b57600080fd5b82516001600160401b038082111561012257600080fd5b818501915085601f83011261013657600080fd5b815181811115610148576101486100e2565b604051601f8201601f19908116603f01168101908382118183101715610170576101706100e2565b81604052828152888684870101111561018857600080fd5b600093505b828410156101aa578484018601518185018701529285019261018d565b828411156101bb5760008684830101525b98975050505050505050565b600181811c908216806101db57607f821691505b6020821081036101fb57634e487b7160e01b600052602260045260246000fd5b50919050565b6103bf806102106000396000f3fe608060405234801561001057600080fd5b50600436106100415760003560e01c80638dfa436314610046578063a41368621461006c578063cfae321714610081575b600080fd5b6100596100543660046101eb565b610096565b6040519081526020015b60405180910390f35b61007f61007a366004610223565b6100a9565b005b6100896100c0565b60405161006391906102d4565b60006100a28284610329565b9392505050565b80516100bc906000906020840190610152565b5050565b6060600080546100cf9061034f565b80601f01602080910402602001604051908101604052809291908181526020018280546100fb9061034f565b80156101485780601f1061011d57610100808354040283529160200191610148565b820191906000526020600020905b81548152906001019060200180831161012b57829003601f168201915b5050505050905090565b82805461015e9061034f565b90600052602060002090601f01602090048101928261018057600085556101c6565b82601f1061019957805160ff19168380011785556101c6565b828001600101855582156101c6579182015b828111156101c65782518255916020019190600101906101ab565b506101d29291506101d6565b5090565b5b808211156101d257600081556001016101d7565b600080604083850312156101fe57600080fd5b50508035926020909101359150565b634e487b7160e01b600052604160045260246000fd5b60006020828403121561023557600080fd5b813567ffffffffffffffff8082111561024d57600080fd5b818401915084601f83011261026157600080fd5b8135818111156102735761027361020d565b604051601f8201601f19908116603f0116810190838211818310171561029b5761029b61020d565b816040528281528760208487010111156102b457600080fd5b826020860160208301376000928101602001929092525095945050505050565b600060208083528351808285015260005b81811015610301578581018301518582016040015282016102e5565b81811115610313576000604083870101525b50601f01601f1916929092016040019392505050565b6000821982111561034a57634e487b7160e01b600052601160045260246000fd5b500190565b600181811c9082168061036357607f821691505b60208210810361038357634e487b7160e01b600052602260045260246000fd5b5091905056fea2646970667358221220b31074744b4f97e97ee69a6afbcb602908489ef8ce474eba2e32c0a3b585033964736f6c634300080d0033",
    "sourcePath": "d:/stages/pfe/orange/projet/poschain/dist/helpers/Greeter.sol",
    "compiler": {
        "name": "solc",
        "version": "0.8.13+commit.abaa5c0e"
    },
    "functionHashes": {
        "calculate(uint256,uint256)": "8dfa4363",
        "greet()": "cfae3217",
        "setGreeting(string)": "a4136862"
    },
    "gasEstimates": {
        "creation": {
            "codeDepositCost": "191800",
            "executionCost": "infinite",
            "totalCost": "infinite"
        },
        "external": {
            "calculate(uint256,uint256)": "353",
            "greet()": "infinite",
            "setGreeting(string)": "infinite"
        }
    }
}